:1000000080313D28F30108007E1480314101161E25
:100010000A280B2812280C1E0E280F2812289031AF
:10002000732080310B1F152816283B284101171F0C
:100030001A281B2823280D1F1E281F28232891312A
:10004000B42180313B28981E262827282F288E1E71
:100050002A282B282F289131552180313B28961EA4
:10006000322833283B288C1E362837283B289031ED
:10007000E62080313B287E10090080313F288F30F8
:1000800084009030850062308600013087000730A0
:10009000903189208031F001F101F201F301F40186
:1000A000F501CE308400003085001F309031832070
:1000B00080314201E901EA01EB01EC01ED01EE01C1
:1000C000A0308400013085002030903183208031C1
:1000D0007E1040018831622842016C08D9006B080B
:1000E000D8006A08D7006908D60040016F084201AD
:1000F000D90040016E084201D80040016D0842015C
:10010000D70040016C084201D6005908E1005808A8
:10011000E0005708DF005608DE00BC01BD016108A1
:10012000031D982880306002031C97289828B72860
:1001300042015E084101B20042015F084101B30083
:10014000420160084101B400420161084101B5006B
:100150001F30B536B40CB30CB20C890BA928350886
:100160003404330432040319B628B728982942010D
:100170005E084101B20042015F084101B300420143
:1001800060084101B400420161084101B50001303D
:10019000B235B30DB40DB50D890BC828350834043C
:1001A00033043204031DD528D628082940016F08DE
:1001B000B1006E08B0006D08AF006C08AE006F08AB
:1001C000B5006E08B4006D08B3006C08B2008D3144
:1001D000C525803140013108E7003008E6002F08CE
:1001E000E5002E08E400BF30EB008030EA0000306C
:1001F000E9000030E8008B31C523803140016708F9
:10020000EF006608EE006508ED006408EC00CD2DF7
:1002100042015E084101B20042015F084101B300A2
:10022000420160084101B400420161084101B5008A
:100230001F30B536B40CB30CB20C890B1929350834
:100240003404330432040319262927295E29213076
:100250004201ED000030EE0000304001E7000030C8
:10026000E6000030E5000030E4006F08DF006E08B3
:10027000DE006D08DD006C08DC006F08E3006E082E
:10028000E2006D08E1006C08E000923157228031F5
:1002900040015F08EB005E08EA005D08E9005C08C9
:1002A000E8008B31C523803140016708EF00660804
:1002B000EE006508ED006408EC00CD2DE73042014A
:1002C000BC07FF30BD3D4C304001B1000030B000F4
:1002D0000030AF000030AE006F08B5006E08B4000B
:1002E0006D08B3006C08B2008D31C5258031400126
:1002F0003108EF003008EE002F08ED002E08EC006A
:100300006F084201D90040016E084201D800400147
:100310006D084201D70040016C084201D60059081F
:10032000E1005808E0005708DF005608DE00B82951
:100330008030420160027F30613B031CA029A1296B
:10034000A229CD2D8030420160063F30031961069D
:100350005E045F04031DAD29AE29B82900304001B9
:10036000EF000030EE000030ED000030EC00CD2D4D
:100370000D304201DE07FB30DF3D4A30E03D00300A
:10038000E13D5E084101B20042015F084101B30056
:10039000420160084101B400420161084101B50019
:1003A0001730B536B40CB30CB20C890BD129320816
:1003B000813EB600FF30333DB70036084201BC072E
:1003C000410137084201BD3DF3304101B200043024
:1003D000B3003530B4003F30B500FF3042015E0558
:1003E0004101B600FF3042015F054101B7007F3097
:1003F000420160054101B800003042016105410140
:10040000B9003608B2073708B33D3808B43D39089B
:10041000B53D35084201E100410134084201E000E8
:10042000410133084201DF00410132084201DE0090
:100430006108D9006008D8005F08D7005E08D600C0
:1004400059084001EF00420158084001EE00420106
:1004500057084001ED00420156084001EC00BF3052
:10046000CB008030CA000030C9000030C8006F08DF
:10047000CF006E08CE006D08CD006C08CC00853131
:10048000CE25803140014B084201DD0040014A0881
:100490004201DC00400149084201DB0040014808FC
:1004A0004201DA0040304001CB000030CA00003089
:1004B000C9000030C80042015D084001CF00420180
:1004C0005C084001CE0042015B084001CD004201C2
:1004D0005A084001CC008531CE25803140014B08BF
:1004E000E7004A08E6004908E5004808E400420140
:1004F0005D084001EB0042015C084001EA00420156
:100500005B084001E90042015A084001E8008B31D4
:10051000C5238031400167084201C90040016608D7
:100520004201C800400165084201C700400164085B
:100530004201C60049084001B1004201480840019B
:10054000B000420147084001AF00420146084001A7
:10055000AE00420149084001B5004201480840018F
:10056000B400420147084001B3004201460840017F
:10057000B2008D31C5258031400131084201CD00E6
:10058000400130084201CC0040012F084201CB005D
:1005900040012E084201CA004D084001B10042014D
:1005A0004C084001B00042014B084001AF0042013D
:1005B0004A084001AE0042014D084001B500420129
:1005C0004C084001B40042014B084001B300420115
:1005D0004A084001B2008D31C52580314001310803
:1005E0004201D100400130084201D00040012F08F3
:1005F0004201CF0040012E084201CE003E304001B2
:10060000CB00CC30CA00CE30C9001330C8003E3019
:10061000B1007830B0009E30AF002630AE0042010D
:1006200051084001B500420150084001B4004201A8
:100630004F084001B30042014E084001B2008D3125
:10064000C525803140013108CF003008CE002F0889
:10065000CD002E08CC008531CE25803140014B08DD
:100660004201D50040014A084201D4004001490836
:100670004201D300400148084201D2005108400124
:10068000B100420150084001B00042014F08400152
:10069000AF0042014E084001AE0042015508400142
:1006A000B500420154084001B40042015308400122
:1006B000B300420152084001B2008D31C52580319E
:1006C000400131084201A700400130084201A60064
:1006D00040012F084201A50040012E084201A4005C
:1006E0003F304001CB002A30CA00AA30C900AA30EE
:1006F000C8003E30B1009130B000E930AF00EE30BC
:10070000AE00420151084001B500420150084001CD
:10071000B40042014F084001B30042014E084001BD
:10072000B2008D31C525803140013108CF0030083D
:10073000CE002F08CD002E08CC008531CE2580318B
:1007400040014B084201D50040014A084201D40053
:10075000400149084201D300400148084201D2004B
:100760004D084001B10042014C084001B000420177
:100770004B084001AF0042014A084001AE0042016F
:1007800055084001B500420154084001B40042013F
:1007900053084001B300420152084001B2008D31BC
:1007A000C5258031400131084201AB0040013008CD
:1007B0004201AA0040012F084201A90040012E0871
:1007C0004201A80027084001CB0042012608400151
:1007D000CA00420125084001C90042012408400125
:1007E000C80042012B084001CF0042012A08400105
:1007F000CE00420129084001CD00420128084001F5
:10080000CC008531CE25803140014B084201A30048
:1008100040014A084201A200400149084201A100EA
:10082000400148084201A0003F304001B1000030C3
:10083000B0000030AF000030AE0042015D08400162
:10084000B50042015C084001B40042015B08400170
:10085000B30042015A084001B2008D31C5258031F4
:10086000400131084201D500400130084201D40066
:1008700040012F084201D30040012E084201D2005E
:100880005D084001B10042015C084001B000420136
:100890005B084001AF0042015A084001AE0042012E
:1008A00055084001B500420154084001B40042011E
:1008B00053084001B300420152084001B2008D319B
:1008C000C5258031400131084201C1004001300896
:1008D0004201C00040012F084201BF0040012E0824
:1008E0004201BE003C084001A00042013D08400119
:1008F000A100890D893B8909A200A300013097312D
:1009000055278031400123084201C50040012208DB
:100910004201C400400121084201C30040012008F7
:100920004201C20049084001B100420148084001AB
:10093000B000420147084001AF00420146084001B3
:10094000AE00420123084001CB00420122084001D1
:10095000CA00420121084001C900420120084001AB
:10096000C800420141084001CF0042014008400157
:10097000CE0042013F084001CD0042013E08400147
:10098000CC008531CE25803140014B08B5004A08A6
:10099000B4004908B3004808B2008D31C525803144
:1009A000400131084201AF00400130084201AE0071
:1009B00040012F084201AD0040012E084201AC0069
:1009C00037304001B1001730B000F730AF00D13000
:1009D000AE00420145084001B50042014408400113
:1009E000B400420143084001B30042014208400103
:1009F000B2008D31C525803140013108CB0030086F
:100A0000CA002F08C9002E08C80042012F08400163
:100A1000CF0042012E084001CE0042012D084001C6
:100A2000CD0042012C084001CC008531CE2580311B
:100A300040014B084201B30040014A084201B200A4
:100A4000400149084201B100400148084201B0009C
:100A500041084001DF00420140084001DE00420140
:100A60003F084001DD0042013E084001DC00420138
:100A700033084001E300420132084001E200420134
:100A800031084001E100420130084001E0009231AC
:100A90005722803140015F084201B70040015E08E3
:100AA0004201B60040015D084201B50040015C080A
:100AB0004201B4005D084001CB0042015C084001E6
:100AC000CA0042015B084001C90042015A084001C6
:100AD000C800420137084001CF00420136084001FA
:100AE000CE00420135084001CD00420134084001EA
:100AF000CC008531CE25803140014B084201BB003E
:100B000040014A084201BA00400149084201B900C7
:100B1000400148084201B8003F304001B100313087
:100B2000B0007130AF008030AE0042014508400196
:100B3000B500420144084001B400420143084001AD
:100B4000B300420142084001B2008D31C525803119
:100B500040013108CB003008CA002F08C9002E0818
:100B6000C80042013B084001CF0042013A08400161
:100B7000CE00420139084001CD0042013808400151
:100B8000CC008531CE25803140014B08EF004A086A
:100B9000EE004908ED004808EC00080040014B0851
:100BA0008039D8004B35DA00CA1FD72DD82DD92D62
:100BB0005A145A080319DD2DDE2DEE2D5A0A031D95
:100BC000E22DE32DEB2D0030CB000030CA000030C9
:100BD000C9000030C800CA17CB01F62D0030CB0089
:100BE0000030CA000030C9000030C8004F0880390A
:100BF000D900590858060319FE2DFF2D002E58174D
:100C00004F35D900CE1F052E062E072E5914590830
:100C100003190B2E0C2E1C2E590A031D102E112EFB
:100C2000192E0030CF000030CE000030CD00003053
:100C3000CC00CE17CF01242E0030CF000030CE00E4
:100C40000030CD000030CC005A0859020318292E7C
:100C50002A2E502E581F2D2E2E2E322E8030D000B0
:100C60005008D8065A08DB005908DA005B08D9009A
:100C70004808DB004C08C8005B08CC004908DB00D2
:100C80004D08C9005B08CD004A08DB004E08CA00C9
:100C90005B08CE004B08DB004F08CB005B08CF00A1
:100CA000DB015908D000D1015108D3005A08500285
:100CB000D200031CD3035308803AD400803054027E
:100CC000031D642E1A305202031C672E682E9A2EC2
:100CD00040014B084A0449044804031D702E722E3B
:100CE0000130732E0030DB000030CB000030CA0032
:100CF0000030C9000030C8005908DA00A12E5B1C82
:100D0000822E832E872E5B360138DB00892E03105E
:100D1000DB0C481C8C2E8D2E8E2EDB170130D00064
:100D2000CB37CA0CC90CC80CD00B902E0130D000A8
:100D30005008DA07400159085A02031CA02EA12EC0
:100D40007F2E581BA42EA52EDB2E5A08031DA92E7C
:100D5000AA2EB32E0030CB000030CA000030C900EC
:100D60000030C800D52F4C08C8074D08C93D4E08B3
:100D7000CA3D4F08CB3D4B1CBE2EBF2E672F5B1CC0
:100D8000C22EC32EC72E5B360138DB00C92E0310DE
:100D9000DB0C481CCC2ECD2ECE2EDB170130D00024
:100DA000CB37CA0CC90CC80CD00BD02E0130D000E8
:100DB0005008DA07672F4B08803AD0004F08803A76
:100DC0005002031DED2E4E084A02031DED2E4D0864
:100DD0004902031DED2E4C0848020318F02EF12E97
:100DE000292FFF30D000FF30D100FF30D200FF307C
:100DF000D30048084C02D40049084D3BD5004A08AE
:100E00004E3BD6004B084F3BD7005408D00755083F
:100E1000D13D5608D23D5708D33D5308CB00520868
:100E2000CA005108C9005008C8008030D0005008DE
:100E3000D806DB09DB0A5B08031D1F2F202F312F8B
:100E40000130C8070030C93D0030CA3D0030CB3DFD
:100E5000312F4C08C8024D08C93B4E08CA3B4F0809
:100E6000CB3B4B084A0449044804031D382F392F53
:100E7000632F5B08031D3D2F3E2F632F0030CB00F7
:100E80000030CA000030C9000030C800D52F013042
:100E9000C835C90DCA0DCB0D890B482FDB1F512F4B
:100EA000522F532F48145B1C562F572F5A2F0314C1
:100EB000DB0D5C2F0310DB0D5A080319602F612F27
:100EC000632F0130DA02CA1F662F672F472FD9011F
:100ED000DB1F6B2F6C2F7A2F5B087F390319712F63
:100EE000722F752FD901D90A7A2F481C782F792FA4
:100EF0007A2F722F590803197E2F7F2FAC2F0130C4
:100F0000C8070030C93D0030CA3D0030CB3D4B1C06
:100F10008A2F8B2FAC2F4808D0004908D1004A08EF
:100F2000D2004B08D3000130D400D337D20CD10CFF
:100F3000D00CD40B952F5308CB005208CA0051088F
:100F4000C9005008C8005A0A0319A72FA82FAC2FB0
:100F50000130D0005008DA075A0A0319B02FB12F18
:100F6000B62F5A08031DB52FB62FC42F0030CB0063
:100F70000030CA000030C9000030C8005A08031D04
:100F8000C22FC32FC42FD8015A1CC72FC82FCA2F56
:100F9000CA17CE2F7F30D0005008CA055A36CB0072
:100FA000D81FD32FD42FD52FCB1708004001AF0067
:100FB000B101B201EE2F3008AD00AE012D08A20044
:100FC0002E08A3002C08A5002B08A40088310320BC
:100FD000873101304001B1070030B23D31082F07A1
:100FE000AD002D088600013087000108B0003008F0
:100FF000031DFB2FFC2FDB2F08000130F40008003D
:101000000800730808004001240825040319092872
:101010000A28102824082504031D0F281028152845
:10102000220891314421883161282408860025084E
:10103000870049311600010403191F282028402881
:1010400024088600250887004931403FA600413F1B
:10105000A70024088600250887004231403FA800E9
:10106000413FA9002908803AAA002708803A2A02AD
:10107000031D3C282608280203183F284028612821
:101080004001240886002508870042312408840096
:1010900025088500403F0007A6000131413F003D83
:1010A000A700260886002708870022088100240858
:1010B000860025088700423101308107413103183D
:1010C000810A08009131FE218831B6304001E000EC
:1010D0009830E1000030E2009830E30091311221B5
:1010E000883133304001A0001130A10090319F20A1
:1010F000883179304001A0001030A100F230840026
:1011000098308500013F8A00003F0A008831FD3099
:101110004001A0000730A100E6308400983085002F
:10112000013F8A00003F0A0088318B170B177208B5
:1011300003199B289C28CA28F2019531BC258831C7
:10114000400125084101D100400124084101D0009F
:10115000400123084101CF00400122084101CE0097
:1011600051084001B100410150084001B000410167
:101170004F084001AF0041014E084001AE009231DE
:10118000BF22883140012F084101D70040012E08BD
:101190004101D60074080319CE28CF289728F401FE
:1011A0008A312D22883141013B08D9003A08D80004
:1011B00057084001E700410156084001E60041019F
:1011C00059084001E900410158084001E800943104
:1011D000E2248831400167084101DB0040016608D4
:1011E0004101DA00D601D7015A085B04031DF92832
:1011F000FA2803299F304001E0009830E100913146
:1012000012218831972807305B02D13003195A0226
:10121000031C0B290C29152968304001E000983087
:10122000E100913112218831972885304001E0009A
:101230009830E100410159084001E300410158089C
:101240004001E200913112218831CC304001E000B0
:101250009830E10041015B084001E30041015A0878
:101260004001E200913112218831972880313D28D8
:1012700040014A0886008701403FCC00413FCD0035
:101280004C0884004D0885001200253A031D4929A9
:101290004A29122A4A088600870101308107413114
:1012A0000318810A4101D201D30103100030031851
:1012B0000130EC00FF30D400FF30D50040014A0877
:1012C00086008701403FD600413FD7005608840082
:1012D000570885001200753A031D6F297029A72948
:1012E0004B088600870101088400850102308107D0
:1012F000003FD000013FD1005608013ECC00003035
:10130000573DCD004A08860087014C08C03F4D0874
:10131000C13F96294908BE004808BD005108C000D9
:101320005008BF009631342689312C2A5608840093
:10133000570885000008CC00CD014D08003A03197C
:10134000A229A7294C08753A03198A29A7294A080E
:1013500086008701403FCC00413FCD004C0884000F
:101360004D0885001200733A0319B729B829D1290D
:101370004A0886008701403FA000413FA1000E308F
:10138000A2009930A3000330A4000030A5009431DE
:1013900027248931400120082104031DD029D129A7
:1013A000082A4A0886008701403FCC00413FCD0013
:1013B0004C0884004D0885001200733A0319E12996
:1013C000E229E7290330D4000030D500EB290130B1
:1013D000D4000030D5004A088600870154088107F0
:1013E00041315508813D7F314908AC004808AB00C8
:1013F0004B088600870101088400850102308107BF
:10140000003FAD00013FAE009631B02689312C2A55
:1014100040014A08860087010130810741310318E5
:10142000810A2C2A4A0886008701403FCC00413FB0
:10143000CD004C0884004D0885000008CE00CF0187
:101440004E08A2004F08A3004908A5004808A400C0
:10145000883103208931082A0800153091318B2109
:101460008A31400121084101C900400120084101A1
:10147000C8003A304001B1005330B0003330AF0003
:101480003330AE00410148084001A0004101490845
:101490004001A100A201A3010030973155278A31F4
:1014A00040012308B5002208B4002108B300200839
:1014B000B2008D31C5258A31400131084101CD008E
:1014C000400130084101CC0040012F084101CB0010
:1014D00040012E084101CA004D084001DF004101D2
:1014E0004C084001DE0041014B084001DD00410194
:1014F0004A084001DC004030E3005330E200333062
:10150000E1003330E000923157228A3140015F0818
:10151000E7005E08E6005D08E5005C08E400413095
:10152000B1002030B0000030AF000030AE0041010B
:101530004D084001B50041014C084001B400410193
:101540004B084001B30041014A084001B2008D310F
:10155000C5258A3140013108EB003008EA002F0828
:10156000E9002E08E8008B31C5238A314001670865
:101570004101CD00400166084101CC0040016508F1
:101580004101CB00400164084101CA0041304001E3
:10159000E7002030E6000030E5000030E4004101C3
:1015A0004D084001EB0041014C084001EA004101B7
:1015B0004B084001E90041014A084001E8008B3135
:1015C000C5238A31400167084101BF004001660818
:1015D0004101BE00400165084101BD0040016408B1
:1015E0004101BC003F084001EF0041013E084001BD
:1015F000EE0041013D084001ED0041013C08400181
:10160000EC0080316C208A3140016F084101C30039
:1016100040016E084101C20040016D084101C10056
:1016200040016C084101C0003B304001CB005B3001
:10163000CA00CF30C9000F30C8004530E70076300F
:10164000E600E030E5000030E400410143084001DD
:10165000EB00410142084001EA004101410840011C
:10166000E900410140084001E8008B31C5238A317F
:1016700040016708CF006608CE006508CD00640809
:10168000CC008531CE258A3140014B084101C7008D
:1016900040014A084101C600400149084101C50016
:1016A000400148084101C40047084001E7004101EA
:1016B00046084001E600410145084001E5004101BE
:1016C00044084001E4003F30EB008030EA00003085
:1016D000E9000030E8008B31C5238A3140016708FA
:1016E0004101CD00400166084101CC004001650880
:1016F0004101CB00400164084101CA00C3304001F0
:10170000CB008830CA009330C9003330C800410193
:101710004D084001CF0041014C084001CE0041017D
:101720004B084001CD0041014A084001CC00853101
:10173000CE258A3140014B084101CD0040014A08C5
:101740004101CC00400149084101CB00400148085B
:101750004101CA004D084001CB0041014C08400145
:10176000CA0041014B084001C90041014A0840013B
:10177000C80095314B258A31400149084101BB0021
:10178000400148084101BA00080040016B08803957
:101790004101A90040016B354101B0004001EA1F41
:1017A000D22BD32BD52B4101301441013008031922
:1017B000DA2BDB2BED2B300A031DDF2BE02BE92B83
:1017C00000304001EB000030EA000030E90000305A
:1017D000E8004001EA17EB01F62B00304001EB0076
:1017E0000030EA000030E9000030E8006708803986
:1017F0004101A0002008A906400167354101B10060
:101800004001E61F042C052C072C41013114410135
:10181000310803190C2C0D2C1F2C310A031D112C1F
:10182000122C1B2C00304001E7000030E600003095
:10183000E5000030E4004001E617E701282C003005
:101840004001E7000030E6000030E5000030E40031
:101850006708660465046404031D2F2C302C4B2C90
:101860000030EB000030EA000030E9000030E80012
:101870008030EA047F30EB0441012908A0002008F1
:101880004001EB046B08E7006A08E6006908E50020
:101890006808E400C42D41013008031D502C512C70
:1018A0005B2C00304001E7000030E6000030E5002E
:1018B0000030E400C42D3008A000A1012108A300DD
:1018C00031082002A200031CA30322087F3EAA00C5
:1018D0000030233DAB0040016B084101A8004001EE
:1018E0006A084101A700400169084101A6004001C2
:1018F00068084101A50000304001EB000030EA001B
:101900000030E9000030E80000304101AF00003055
:10191000AE000030AD000030AC00B101E12C310868
:101920000319932C942CB22C0130A535A60DA70DCC
:10193000A80D890B952C01304001E835E90DEA0D21
:10194000EB0D890B9C2C4101AF1FA72CA82CAA2CB6
:101950004001681401304101AC35AD0DAE0DAF0D45
:10196000890BAB2C4001670841012802031DC82CDC
:101970004001660841012702031DC82C400165088B
:1019800041012602031DC82C4001640841012502C3
:10199000031CCB2CCC2CDD2C2F17400164084101FB
:1019A000A502400165084101A63B400166084101CE
:1019B000A73B400167084101A83B0130A000200877
:1019C000B1071A303102031CE62CE72C8F2C2808B3
:1019D0002704260425040319EE2CEF2C0B2D2C14C0
:1019E0000B2D0130E835E90DEA0DEB0D890BF22CDA
:1019F0004101AF1FFC2CFD2CFF2C4001681401306D
:101A00004101AC35AD0DAE0DAF0D890B002DFF3092
:101A1000AA07FF30AB3D4001EA1F0F2D102DF12C1E
:101A20004101B101AF1F152D162D342DFF302C05AE
:101A3000A000FF302D05A100FF302E05A2007F3051
:101A40002F05A30023082204210420040319292DB3
:101A50002A2D2E2D4101B101B10A342D4001681CFF
:101A6000322D332D342D2A2D410131080319392D02
:101A70003A2D722D01304001E8070030E93D003079
:101A8000EA3D0030EB3D6B1C462D472D722D68085A
:101A90004101A000400169084101A10040016A081C
:101AA0004101A20040016B084101A3000130A400E4
:101AB000A337A20CA10CA00CA40B582D23084001A5
:101AC000EB00410122084001EA00410121084001E8
:101AD000E900410120084001E80001304101AA0766
:101AE0000030AB3D41012B08803AA000803020023D
:101AF000031D7C2DFF302A02031C7F2D802D8E2D8F
:101B0000FF304101AA000030AB0000304001EB0083
:101B10000030EA000030E9000030E80041012B0805
:101B2000803AA00080302002031D982D01302A0247
:101B300003189B2D9C2DAA2D4101AA01AB01003059
:101B40004001EB000030EA000030E9000030E8001E
:101B50004101A90141012A08B000301CB02DB12D6E
:101B6000B42D4001EA17B92D7F30A00020084001B4
:101B7000EA05410130364001EB0041012908A0008F
:101B800020084001EB04422C080040013108803954
:101B9000BB003135C100B01FCE2DCF2DD02D41144B
:101BA00041080319D42DD52DE42D410A031DD92D4B
:101BB000DA2DE22D0030B1000030B0000030AF006F
:101BC0000030AE00B017EC2D0030B1000030B00096
:101BD0000030AF000030AE0035088039B60036085E
:101BE000BB063535BC00B41FF62DF72DF82D3C147F
:101BF0003C080319FC2DFD2D0C2E3C0A031D012E63
:101C0000022E0A2E0030B5000030B4000030B300C0
:101C10000030B200B417142E0030B5000030B4000C
:101C20000030B3000030B2003C080319182E192E02
:101C30001E2E4108031D1D2E1E2E272E0030B10022
:101C40000030B0000030AF000030AE00FF2F2E0893
:101C5000A0003408923177228D3140012108C7005D
:101C60002008C6004608B600B701B801B901390816
:101C7000C0003808BF003708BE003608BD0047085E
:101C8000B600B701B801B9013908C5003808C40069
:101C90003708C3003608C2002F08A000330892316D
:101CA00077228D3140012108C7002008C600460870
:101CB000B600B701B801B9013608BD073708BE3D07
:101CC0003808BF3D3908C03D4708B600B701B80124
:101CD000B9013608C2073708C33D3808C43D390882
:101CE000C53D3008A0003208923177228D31400185
:101CF0002108C7002008C6004608B600B701B80191
:101D0000B9013608BD073708BE3D3808BF3D390860
:101D1000C03D4708B600B701B801B9013608C2078F
:101D20003708C33D3808C43D3908C53D0830BD35C6
:101D3000BE0DBF0DC00D890B972E2F08A0003208D5
:101D4000923177228D3140012108C7002008C6005A
:101D50004608BD074708BE3D0030BF3DC03D2E08C8
:101D6000A0003308923177228D3140012108C7004D
:101D70002008C6004608BD074708BE3D0030BF3DED
:101D8000C03D0830BD35BE0DBF0DC00D890BC22E44
:101D90002E08A0003208923177228D3140012108AF
:101DA000C7002008C6004608BD074708BE3D0030F2
:101DB000BF3DC03D2F08A0003408923177228D31FD
:101DC00040012108C7002008C6004608C20747088E
:101DD000C33D0030C43DC53D3008A00033089231FA
:101DE00077228D3140012108C7002008C60046082F
:101DF000C2074708C33D0030C43DC53D3008A000C0
:101E00003408923177228D3140012108C700200823
:101E1000C6004608B6004708B700B801B901083047
:101E2000B635B70DB80DB90D890B102F3608C2079E
:101E30003708C33D3808C43D3908C53D3D08B600E4
:101E40003E08B7003F08B8004008B9001830B9365E
:101E5000B80CB70CB60C890B272F3608C207370809
:101E6000C33D3808C43D3908C53D0830BD35BE0DF9
:101E7000BF0DC00D890B362F41083C07B600B701D6
:101E8000B70D3608823EC600FF30373DC7005F2FD2
:101E90000130C235C30DC40DC50D890B492FC01FBC
:101EA000522F532F542F42140130BD35BE0DBF0D9C
:101EB000C00D890B552FFF30C607FF30C73DC41F2B
:101EC000622F632F482FBC01C01F672F682F842FFC
:101ED000FF303D05B600FF303E05B700FF303F053F
:101EE000B8007F304005B90039083804370436049B
:101EF00003197B2F7C2F7F2FBC01BC0A842F421C2F
:101F0000822F832F842F7C2F3C080319882F892F41
:101F1000B12F0130C2070030C33D0030C43D003056
:101F2000C53D451C942F952FB12F4208B60043089C
:101F3000B7004408B8004508B9000130BA00B93705
:101F4000B80CB70CB60CBA0B9F2F3908C50038086F
:101F5000C4003708C3003608C2000130C60700308D
:101F6000C73D4708803AB60080303602031DBA2FBD
:101F7000FF304602031CBD2FBE2FC82F7F3040010B
:101F8000C5008030C4000030C3000030C200F32F11
:101F900040014708803AB60080303602031DD22F38
:101FA000013046020318D52FD62FE12F0030400113
:101FB000C5000030C4000030C3000030C200BB01C7
:101FC000F32F40014608C100FF30C205FF30C305B2
:101FD0007F30C4050030C505411CEF2FF02FF12FD5
:101FE000C4174136C5003B08B6003608C50445088D
:101FF000B1004408B0004308AF004208AE0008003A
:1020E4000800080008004101DC01DD01080001309E
:1020F400F6007608F5070800400120084E018D001F
:102104000800640080010131890B84280034FE003A
:1021140012001E00FE0B8A28003428346E347534F5
:102124006C346C342934003441015D084001A10051
:1021340041015C084001A000080040012108410160
:10214400EE00400120084101ED0008004001210893
:102154004101EB00400120084101EA000800400170
:1021640021084101E700400120084101E600080080
:10217400400121084101E500400120084101E4003B
:102184000800603045018D0040308F00910105301A
:10219400930092019401080041010C100B140030CB
:1021A4004001A0000030A1009031A8209031080027
:1021B400023052018D0022308E0001308F009001D8
:1021C400920180308C00080041018C12640865047F
:1021D4000319ED28EE28F32865088A0064080A002C
:1021E400903108004001200821040319FA28FB2833
:1021F400022921084101E100400120084101E000D9
:102204000800400120082104031909290A29112979
:1022140021084101DF00400120084101DE000800DF
:1022240062304001E4000030D800D9006108DB00CE
:102234006008DA006430DC0092311A22913108001F
:1022440046010E1D262927292E290E1077088D00F8
:1022540076088C000E14322977088D0076088C00DD
:10226400080079084101DD007808DC007508F300F6
:10227400F5010030F600F70091312221913101304F
:10228400F20008004001A100913179219131003A16
:1022940003194D294E29462940012108A0009031F7
:1022A4007E209131080041018E1248010C08FA0089
:1022B4000D08FB007B08F9007A08F80041016E085C
:1022C4008A006D080A0091310800863048018E00AA
:1022D4008F018D018C0172304001A0001030A100EB
:1022E40090319F20913141018E12981608004001CF
:1022F400A0014101101F7F29802988294E01911EC8
:102304008429852988294001A001A00A40012008C8
:1023140008004001A20022087A019F00A617261394
:10232400261426189629972993291E084001A100EE
:102334007A011D084001A0000800F33043019D000C
:102344009C014F309F0000304001A0000830A100E4
:102354009031BA20913141018C129616803043019C
:102364009E00080041010D137108F7007008F60083
:102374009131222191314101660867040319C3296F
:10238400C429C92967088A0066080A00913108002F
:1023940046018F019001013091008D018C010D08DF
:1023A400F1000C08F00074304001A0001030A100CE
:1023B4009031B120913141010D13171701304601BD
:1023C4008E00080040012108A4002008A300EE2983
:1023D4000130A0070030A13D2008840021088500B9
:1023E4001200031DF629F729EA2923082002A00078
:1023F4002408213BA10008009031C320913193317E
:102404002123913192319B22913191316721913174
:102414009231382291319031DA20913191319F21DA
:1024240091319131CA2191319031CE2091310800FE
:1024340040015B08DF005A08DE002B2A5908C90056
:102444005808C8005E30CA005C08CB0089313821C6
:10245400923140015E0884005F0885001200031D6C
:10246400342A352A202AD801D901080048304E01DF
:102474009200803090002630910040308E0003306E
:102484008F0000304001A0000030A1009031F42002
:10249400923100304001A0000030A10091310321AD
:1024A40092314101E201E301080080304001DF067E
:1024B4006308CB006208CA006108C9006008C8004C
:1024C4005F08CF005E08CE005D08CD005C08CC003C
:1024D4008531CE25923140014B08DF004A08DE00E9
:1024E4004908DD004808DC0008004001A800A401F8
:1024F400A5012008A200A3012208A6002308A70022
:10250400281C852A862A8A2A2608A4072708A53D86
:102514000130A635A70D890B8B2A0310A80C2808B7
:10252400031D952A962A822A2508A1002408A000C2
:1025340008007A018C018D018E018F0192019301B3
:10254400980110309A009F01A0016430A100A201FB
:10255400A301A401A501AE01AF01B001A701403060
:10256400A800A901AA01AB01AC010130AD0094306F
:10257400A600410112109210080040013108A30086
:102584003008A2002F08A1002E08A0000030A700E8
:102594000F30A6004230A5004030A4009331CC2374
:1025A400923140012108B5002008B4003508B30079
:1025B4003408B2000430B336B20C890BDD2A340877
:1025C4003207B4003508333DB5003508AF00340890
:1025D400AE0008004001200821040319F22AF32A5E
:1025E4001C2BA501A50AFF2A0130A035A10D890BDA
:1025F400F72A0130A4002408A507A11F022B032BEE
:10260400F62A21082302031D092B20082202031C99
:102614000C2B0D2B112B2008A2022108A33B013007
:10262400A136A00C890B122B0130A502031D1B2B14
:102634001C2B032B2308A1002208A0000800400142
:10264400980199019A013730920070309300FB3061
:10265400940037307D018C0050309600EF30A0009C
:102664008D019701A1018E019801A20137308F00DD
:10267400F0309900FF30A3003F309000F0309A0012
:10268400FF30A40014307C019E000D30C2001330D2
:102694007B019B007D019101920193019B019C01AF
:1026A4009D01A501A601A70108004001B71B5B2BF2
:1026B4005C2B612B3708BC003608BB00632BBB01C5
:1026C400BC01B901BA01772B20304001A2000030CF
:1026D400A3003408A5003308A400883103209331F3
:1026E40001304001B9070030BA3D3A08803AB800D9
:1026F4003C08803A3802031D812B3B083902031C35
:10270400842B852B662B40013408AC003308AB00C6
:1027140035088731D627933108004001A601A70167
:10272400200821040319972B982BC72BA501A50A70
:10273400A42B0130A035A10D890B9C2B0130A400E2
:102744002408A507A11FA72BA82B9B2B0130A63576
:10275400A70D890BA92B21082302031DB32B2008E5
:102764002202031CB62BB72BBC2B2008A202210883
:10277400A33B26140130A136A00C890BBD2B0130DC
:10278400A502031DC62BC72BA82B2708A1002608CA
:10279400A000080000304001AC000030AB00003065
:1027A400AA000030A90023082204210420040319EC
:1027B400DC2BDD2B1E2CAD01AD0AEB2B0130A0353B
:1027C400A10DA20DA30D890BE12B0130A80028084F
:1027D400AD07A31FEE2BEF2BE02B0130A935AA0D7B
:1027E400AB0DAC0D890BF02B23082702031D042C21
:1027F40022082602031D042C21082502031D042C93
:1028040020082402031C072C082C112C2008A402E5
:102814002108A53B2208A63B2308A73B2914013025
:10282400A336A20CA10CA00C890B122C0130AD0212
:10283400031D1D2C1E2CEF2B2C08A3002B08A2001B
:102844002A08A1002908A000080040012108A800C6
:102854002008A7002308AA002208A9000130A40226
:102864000030A53B240A031D3B2C250A031D3B2CE9
:102874003C2C4B2CA001A101832C0130A707003074
:10288400A83D0130A9070030AA3D0130A402003060
:10289400A53B270884002808850012000319532C3F
:1028A400542C732C290884002A088500120003196B
:1028B4005C2C5D2C732C240825040319622C632CD6
:1028C400732C290884002A0885000008A60027081C
:1028D400840028088500000826060319722C732C2E
:1028E4003F2C27088400280885000008A600290832
:1028F40084002A08850000082602A000A101031C08
:10290400A10308003F304001CB008030CA000030F2
:10291400C9000030C8003C30B100B130B000C43050
:10292400AF003330AE006008E73EA000FF30613DE9
:10293400A100A201A11BA2032208A3000130973128
:102944005527943140012308B5002208B40021081A
:10295400B3002008B2008D31C525943140013108FF
:10296400CF003008CE002F08CD002E08CC008531D2
:10297400CE25943140014B08E5004A08E40049089B
:10298400E3004808E2005F08B1005E08B0005D089B
:10299400AF005C08AE006508B5006408B4006308C5
:1029A400B3006208B2008D31C5259431400131086D
:1029B400DF003008DE002F08DD002E08DC000800F0
:1029C4003E304001B1000F30B0005C30AF00293020
:1029D400AE006608A0006708A100A201A3010030B0
:1029E40097315527943140012308B5002208B400DB
:1029F4002108B3002008B2008D31C525943140016F
:102A04003108EF003008EE002F08ED002E08EC002E
:102A14006F08DF006E08DE006D08DD006C08DC0066
:102A24006908E1006808E00094318424943140018D
:102A34005F08EF005E08EE005D08ED005C08EC0046
:102A44006F08B5006E08B4006D08B3006C08B200DE
:102A54003E30B100C230B0008F30AF005C30AE0009
:102A64008D31C525943140013108CB003008CA00AE
:102A74002F08C9002E08C80095314B259431400118
:102A84004908EB004808EA006B08E7006A08E6001A
:102A94000800031040014A0D4B0DD1005108031DDD
:102AA400542D552D5E2D0030CB000030CA0000306F
:102AB400C9000030C800BB2D4808CC004908CD002F
:102AC4004A08CE004B08CF001F30CF36CE0CCD0CB9
:102AD400CC0C890B672D4C08D000CA17FF30C805F1
:102AE400FF30C905FF30CA050030CB059630D1024E
:102AF400D11F7D2D7E2D962D5108803A973E0318C7
:102B0400842D852D862D552D0130CB36CA0CC90C4C
:102B1400C80C890B872D0130CC004C08D107031D4C
:102B2400942D952D862DAB2D20305102031C9B2D09
:102B34009C2DA62D552D0130C835C90DCA0DCB0DC0
:102B4400890B9E2D0130D1025108031DAA2DAB2DF6
:102B54009D2D50080319AF2DB02DBB2DC809C909EF
:102B6400CA09CB09C80A0319C90A0319CA0A0319ED
:102B7400CB0A080000304001B3000030B20000303E
:102B8400B1000030B0009031962095314001210809
:102B9400AF002008AE008831012095314001B80013
:102BA40080310220953190317520953123304001D8
:102BB40038020318DE2DDF2D232E3808A600A701C6
:102BC400A609A709A60A0319A70A2608B400270814
:102BD400B500B601B7013408A6003508A7003608C9
:102BE400A8003708A9002E08AA002F08AB00AC01E2
:102BF400AD012A08A6072B08A73D2C08A83D2D08DF
:102C0400A93D2908B7002808B6002708B5002608FA
:102C1400B4003408A6003508A7003608A800370811
:102C2400A9000530A936A80CA70CA60C890B142EF4
:102C34002908B3002808B2002708B1002608B0000C
:102C44002B2E0030B3000A30B2008730B10051306F
:102C5400B0003308A5003208A4003108A3003008EE
:102C6400A20008004101D51F382E392E3F2E013015
:102C74004001C4000030C500462E55084001C5007F
:102C8400410154084001C400410153084001C300FC
:102C9400410152084001C2001F30C6000030C70085
:102CA4004301BF01862EFF304001C607FF30C73DF8
:102CB4004608A03E8600013087000A30A00000309C
:102CC400A1004008A3003F08A2009231EC229631F3
:102CD40040012008303E8100FF30C407FF30C53D6D
:102CE400FF30C207FF30C33D0A30A0000030A1000E
:102CF4004008A3003F08A20093318F23963140017E
:102D04002108C0002008BF004001460847040319F9
:102D14008C2E8D2EA02E3F084004031D922E932E40
:102D2400552E4508803AC10080304102031D9C2E77
:102D34000130440203189F2EA02E552E40013E0858
:102D4400B4003D08B3004608A03EB5004308B700F0
:102D54004208B6009331572396310800623086004A
:102D64000130870031308400003085000730400195
:102D7400AF0016001A00AF0BBB2E2E08BD002D08A5
:102D8400BC003C083D04031DC82EC92ECD2E313095
:102D9400BC000030BD003D08A1003C08A0009131FA
:102DA400E421963140012108BF002008BE00410102
:102DB40055084001C100410154084001C000C11B35
:102DC400E42EE52EF92E4108803AAF003F08803A00
:102DD4002F02031DEF2E3E084002031CF22EF32E99
:102DE400F42EF92E40014108BF004008BE00400106
:102DF4003F08C1003E08C000410153084001B9002A
:102E0400410152084001B800182F20304001A200AF
:102E14000030A3002C08A5002B08A400883103204F
:102E2400963101304001BE070030BF3D3F08803A73
:102E3400AF003908803A2F02031D222F38083E02C2
:102E4400031C252F262F072F4001BA01BB01462F53
:102E540040013C0884003D0885000008AF00B00133
:102E64002F08A2003008A3002C08A5002B08A400FA
:102E740088310320963101304001BC070030BD3D4C
:102E84000130BA070030BB3D3B08803AAF0041082F
:102E9400803A2F02031D502F40083A02031C532F7F
:102EA400542F2A2F08004001A800280803195B2F7B
:102EB4005C2F702FA31F5F2F602F702F2009AA0093
:102EC4002109AB002209AC002309AD00AA0A0319A9
:102ED400AB0A0319AC0A0319AD0A782F2308AD0015
:102EE4002208AC002108AB002008AA002308220411
:102EF40021042004031D7F2F802F892F0030A3007D
:102F04000030A2000030A1000030A000FF2F963056
:102F1400A900972F0130A4002408A9070130AD3679
:102F2400AC0CAB0CAA0C890B912FFE302D05031DA4
:102F34009C2F9D2F8C2FB12F0130A4002408A907AA
:102F44000130AA070030AB3D0030AC3D0030AD3D50
:102F54000130AD36AC0CAB0CAA0C890BAB2FFF3097
:102F64002D05031DB62FB72F9E2FC12F0130A902A7
:102F74000130AA35AB0DAC0DAD0D890BBB2FAC1BCD
:102F8400C42FC52FCB2F023029020318CA2FCB2FF1
:102F9400B82F2918CE2FCF2FD72FFF30AA05FF30F7
:102FA400AB057F30AC05FF30AD050310A90C290833
:102FB400A400A501A601A7011830A435A50DA60DEE
:102FC400A70D890BDF2F2408AA042508AB042608C3
:102FD400AC042708AD0428080319F12FF22FF72FAA
:102FE400A31FF52FF62FF72FAD172D08A3002C08DC
:102FF400A2002B08A1002A08A00008000D342034E8
:103004000A3420342A342A342A342D342D342D34ED
:103014002D342D345734613474346534723420348F
:1030240054344434533420344D3465347434653466
:10303400723420347534733469346E346734203414
:1030440050344934433431343634463431343734EB
:103054003134343436342D342D342D342D342D3450
:103064002A342A342A3420340D3420340A340034E7
:103074003834123400340034003400347E341034D4
:103084000034003479341134003400340034003412
:10309400003400340034003400340034003400348C
:1030A400003400340034003400340034003400347C
:1030B400003400340034003400340034F434103468
:1030C4000334113400340034003400340D3420341B
:1030D4000A34203454344434533420347634613440
:1030E4006C347534653420346F347534743420345E
:1030F4006F3466342034523461346E34673465344A
:103104002134213400340D3420340A34203457342B
:1031140061347434653472342034543465346D3419
:103124007034653472346134743475347234653493
:103134003A3420342534753400340D3420340A34C0
:103144002034503472346F3462346534203444345F
:103154006934733463346F346E346E346534633479
:1031640074346534643400340D3420340A34203427
:10317400503472346F346A346534633474342034B4
:103184004E3461346D3465343A3420342534733428
:10319400203400340D3420340A342034573461345C
:1031A40074346534723420345434443453343A34EB
:1031B40020342534753400349F3411340034003401
:1031C4000034003400340034BA3410340034003491
:1031D400CA3411340034003400340034223411343D
:1031E400B13410340034003426349E3478343E3400
:1031F400EE34E93491343E341334CE34CC343E349A
:10320400AA34AA342A343F34D134F7341734373447
:103214008034713431343F346C346C34733400345E
:020000040001F9
:08000000FF3FFF3FFF3FFF3F00
:0A000E00FF3FFF3F9F3FFF3FFF3F12
:00000001FF
