:1000000080314B28F00108007E1480314101161E1A
:100010000A280B2813280C1E0E280F2813289E319F
:10002000F126803149280B1F1628172849289A1FC6
:100030001A281B282528901F1E281F2825286D08F0
:100040008A006C080A0080314928171F28282928AF
:1000500031280D1F2C282D28312890312F20803158
:100060004928981E342835283D288E1E38283928DE
:100070003D289F31DC2780314928961E40284128A1
:1000800049288C1E4428452849289F315D27803106
:1000900049287E10090080314D28053084009F30AA
:1000A000850043011200D3001200D4001200D500D5
:1000B0001200D6001200D7001200D8001200D9009A
:1000C00070308400263085008030FE000130FF0053
:1000D0009F3151278031F001F101F201F301F40168
:1000E000F501CE308400003085002230FE00003063
:1000F000FF009F315127803162308400013085003C
:100100000A30FE000030FF009F3151278031A030BF
:100110008400013085003330FE000030FF009F3145
:10012000512780317E1040018831482842016508FE
:10013000D9006408D8006308D7006208D6004001DF
:100140006F084201D90040016E084201D800400109
:100150006D084201D70040016C084201D6005908E1
:10016000E1005808E0005708DF005608DE00BC0137
:10017000BD016108031DC22880306002031CC12834
:10018000C228E12842015E084101B20042015F0835
:100190004101B300420160084101B400420161081D
:1001A0004101B5001F30B536B40CB30CB20C890B4D
:1001B000D32835083404330432040319E028E12835
:1001C000C22942015E084101B20042015F084101BB
:1001D000B300420160084101B400420161084101DD
:1001E000B5000130B235B30DB40DB50D890BF22851
:1001F0003508340433043204031DFF280029322952
:1002000040016F08B1006E08B0006D08AF006C08C7
:10021000AE006F08B5006E08B4006D08B3006C083E
:10022000B2008D31C525803140013108E70030082A
:10023000E6002F08E5002E08E400BF30EB00803018
:10024000EA000030E9000030E8008B31C52380313E
:1002500040016708EF006608EE006508ED006408DD
:10026000EC00F72D42015E084101B20042015F0837
:100270004101B300420160084101B400420161083C
:100280004101B5001F30B536B40CB30CB20C890B6C
:100290004329350834043304320403195029512901
:1002A000882921304201EA000030EB000030400193
:1002B000E7000030E6000030E5000030E4006F08A1
:1002C000DF006E08DE006D08DD006C08DC006F08E2
:1002D000E3006E08E2006D08E1006C08E000903178
:1002E000CF20803140015F08EB005E08EA005D0826
:1002F000E9005C08E8008B31C523803140016708C4
:10030000EF006608EE006508ED006408EC00F72DCC
:10031000E7304201BC07FF30BD3D4C304001B10029
:100320000030B0000030AF000030AE006F08B50004
:100330006E08B4006D08B3006C08B2008D31C5259D
:10034000803140013108EF003008EE002F08ED0049
:100350002E08EC006F084201D90040016E084201EE
:10036000D80040016D084201D70040016C084201ED
:10037000D6005908E1005808E0005708DF00560889
:10038000DE00E2298030420160027F30613B031CC5
:10039000CA29CB29CC29F72D8030420160063F3095
:1003A000031961065E045F04031DD729D829E229D9
:1003B00000304001EF000030EE000030ED00003072
:1003C000EC00F72D0D304201DE07FB30DF3D4A30F7
:1003D000E03D0030E13D5E084101B20042015F08AE
:1003E0004101B300420160084101B40042016108CB
:1003F0004101B5001730B536B40CB30CB20C890B03
:10040000FB293208813EB600FF30333DB700360885
:100410004201BC07410137084201BD3DF3304101B3
:10042000B2000430B3003530B4003F30B500FF30C7
:1004300042015E054101B600FF3042015F05410106
:10044000B7007F30420160054101B8000030420131
:1004500061054101B9003608B2073708B33D3808D5
:10046000B43D3908B53D35084201E1004101340889
:100470004201E000410133084201DF00410132083E
:100480004201DE006108D9006008D8005F08D7008B
:100490005E08D60059084001EF00420158084001AB
:1004A000EE00420157084001ED00420156084001AC
:1004B000EC00BF30CB008030CA000030C9000030F3
:1004C000C8006F08CF006E08CE006D08CD006C0824
:1004D000CC008531F825803140014B084201DD0018
:1004E00040014A084201DC00400149084201DB00AA
:1004F000400148084201DA0040304001CB000030A2
:10050000CA000030C9000030C80042015D08400147
:10051000CF0042015C084001CE0042015B0840016F
:10052000CD0042015A084001CC008531F8258031C8
:1005300040014B08E7004A08E6004908E500480882
:10054000E40042015D084001EB0042015C0840010B
:10055000EA0042015B084001E90042015A084001FB
:10056000E8008B31C5238031400167084201C90092
:10057000400166084201C800400165084201C70009
:10058000400164084201C60049084001B10042012F
:1005900048084001B000420147084001AF00420155
:1005A00046084001AE00420149084001B500420141
:1005B00048084001B400420147084001B30042012D
:1005C00046084001B2008D31C52580314001310817
:1005D0004201CD00400130084201CC0040012F080B
:1005E0004201CB0040012E084201CA004D084001E3
:1005F000B10042014C084001B00042014B084001EB
:10060000AF0042014A084001AE0042014D084001DE
:10061000B50042014C084001B40042014B084001C2
:10062000B30042014A084001B2008D31C525803136
:10063000400131084201D100400130084201D000A0
:1006400040012F084201CF0040012E084201CE0098
:100650003E304001CB00CC30CA00CE30C900133050
:10066000C8003E30B1007830B0009E30AF00263078
:10067000AE00420151084001B5004201500840015E
:10068000B40042014F084001B30042014E0840014E
:10069000B2008D31C525803140013108CF003008CE
:1006A000CE002F08CD002E08CC008531F8258031F2
:1006B00040014B084201D50040014A084201D400E4
:1006C000400149084201D300400148084201D200DC
:1006D00051084001B100420150084001B000420100
:1006E0004F084001AF0042014E084001AE004201F8
:1006F00055084001B500420154084001B4004201D0
:1007000053084001B300420152084001B2008D314C
:10071000C5258031400131084201A7004001300861
:100720004201A60040012F084201A50040012E0809
:100730004201A4003F304001CB002A30CA00AA3059
:10074000C900AA30C8003E30B1009130B000E93095
:10075000AF00EE30AE00420151084001B500420149
:1007600050084001B40042014F084001B30042016B
:100770004E084001B2008D31C5258031400131085D
:10078000CF003008CE002F08CD002E08CC008531D8
:10079000F825803140014B084201D50040014A084C
:1007A0004201D400400149084201D30040014808F9
:1007B0004201D2004D084001B10042014C08400105
:1007C000B00042014B084001AF0042014A0840011D
:1007D000AE00420155084001B500420154084001F5
:1007E000B400420153084001B300420152084001E5
:1007F000B2008D31C5258031400131084201AB0086
:10080000400130084201AA0040012F084201A9001E
:1008100040012E084201A80027084001CB004201F8
:1008200026084001CA00420125084001C9004201D2
:1008300024084001C80042012B084001CF004201BA
:100840002A084001CE00420129084001CD004201A2
:1008500028084001CC008531F825803140014B0843
:100860004201A30040014A084201A2004001490898
:100870004201A100400148084201A0003F30400170
:10088000B1000030B0000030AF000030AE004201D7
:100890005D084001B50042015C084001B40042011E
:1008A0005B084001B30042015A084001B2008D319B
:1008B000C5258031400131084201D5004001300892
:1008C0004201D40040012F084201D30040012E080C
:1008D0004201D2005D084001B10042015C084001C4
:1008E000B00042015B084001AF0042015A084001DC
:1008F000AE00420155084001B500420154084001D4
:10090000B400420153084001B300420152084001C3
:10091000B2008D31C5258031400131084201C1004E
:10092000400130084201C00040012F084201BF00D1
:1009300040012E084201BE003C084001A0004201D7
:100940003D084001A100890D893B8909A200A3004F
:100950000130963172268031400123084201C500E2
:10096000400122084201C400400121084201C300A5
:10097000400120084201C20049084001B100420183
:1009800048084001B000420147084001AF00420161
:1009900046084001AE00420123084001CB0042015D
:1009A00022084001CA00420121084001C900420159
:1009B00020084001C800420141084001CF00420127
:1009C00040084001CE0042013F084001CD004201F5
:1009D0003E084001CC008531F825803140014B08AC
:1009E000B5004A08B4004908B3004808B2008D3188
:1009F000C5258031400131084201AF004001300877
:100A00004201AE0040012F084201AD0040012E0816
:100A10004201AC0037304001B1001730B000F73070
:100A2000AF00D130AE00420145084001B50042019F
:100A300044084001B400420143084001B3004201B0
:100A400042084001B2008D31C52580314001310896
:100A5000CB003008CA002F08C9002E08C800420188
:100A60002F084001CF0042012E084001CE00420174
:100A70002D084001CD0042012C084001CC008531F9
:100A8000F825803140014B084201B30040014A087B
:100A90004201B200400149084201B100400148084A
:100AA0004201B00041084001DF004201400840011E
:100AB000DE0042013F084001DD0042013E084001E6
:100AC000DC00420133084001E300420132084001EA
:100AD000E200420131084001E100420130084001DA
:100AE000E0009031CF20803140015F084201B70023
:100AF00040015E084201B60040015D084201B500B8
:100B000040015C084201B4005D084001CB00420195
:100B10005C084001CA0042015B084001C900420173
:100B20005A084001C800420137084001CF00420185
:100B300036084001CE00420135084001CD00420197
:100B400034084001CC008531F825803140014B0844
:100B50004201BB0040014A084201BA004001490875
:100B60004201B900400148084201B8003F3040014D
:100B7000B1003130B0007130AF008030AE004201C2
:100B800045084001B500420144084001B40042015B
:100B900043084001B300420142084001B2008D31D8
:100BA000C525803140013108CB003008CA002F082C
:100BB000C9002E08C80042013B084001CF00420195
:100BC0003A084001CE00420139084001CD004201FF
:100BD00038084001CC008531F825803140014B08B0
:100BE000EF004A08EE004908ED004808EC00080054
:100BF00040014B088039D8004B35DA00CA1F012E5E
:100C0000022E032E5A145A080319072E082E182EE6
:100C10005A0A031D0C2E0D2E152E0030CB0000306D
:100C2000CA000030C9000030C800CA17CB01202E0E
:100C30000030CB000030CA000030C9000030C800CE
:100C40004F088039D900590858060319282E292E33
:100C50002A2E58174F35D900CE1F2F2E302E312E69
:100C6000591459080319352E362E462E590A031DDC
:100C70003A2E3B2E432E0030CF000030CE00003005
:100C8000CD000030CC00CE17CF014E2E0030CF006B
:100C90000030CE000030CD000030CC005A085902A0
:100CA0000318532E542E7A2E581F572E582E5C2E72
:100CB0008030D0005008D8065A08DB005908DA0006
:100CC0005B08D9004808DB004C08C8005B08CC0072
:100CD0004908DB004D08C9005B08CD004A08DB006D
:100CE0004E08CA005B08CE004B08DB004F08CB0063
:100CF0005B08CF00DB015908D000D1015108D300B7
:100D00005A085002D200031CD3035308803AD4007F
:100D100080305402031D8E2E1A305202031C912E75
:100D2000922EC42E40014B084A0449044804031D76
:100D30009A2E9C2E01309D2E0030DB000030CB001F
:100D40000030CA000030C9000030C8005908DA007D
:100D5000CB2E5B1CAC2EAD2EB12E5B360138DB00EA
:100D6000B32E0310DB0C481CB62EB72EB82EDB17A3
:100D70000130D000CB37CA0CC90CC80CD00BBA2E2E
:100D80000130D0005008DA07400159085A02031C0C
:100D9000CA2ECB2EA92E581BCE2ECF2E052F5A0889
:100DA000031DD32ED42EDD2E0030CB000030CA0020
:100DB0000030C9000030C800FF2F4C08C8074D089C
:100DC000C93D4E08CA3D4F08CB3D4B1CE82EE92ECD
:100DD000912F5B1CEC2EED2EF12E5B360138DB00E3
:100DE000F32E0310DB0C481CF62EF72EF82EDB1723
:100DF0000130D000CB37CA0CC90CC80CD00BFA2E6E
:100E00000130D0005008DA07912F4B08803AD0000B
:100E10004F08803A5002031D172F4E084A02031D47
:100E2000172F4D084902031D172F4C0848020318BD
:100E30001A2F1B2F532FFF30D000FF30D100FF306F
:100E4000D200FF30D30048084C02D40049084D3B83
:100E5000D5004A084E3BD6004B084F3BD7005408FC
:100E6000D0075508D13D5608D23D5708D33D530809
:100E7000CB005208CA005108C9005008C800803091
:100E8000D0005008D806DB09DB0A5B08031D492F98
:100E90004A2F5B2F0130C8070030C93D0030CA3DE2
:100EA0000030CB3D5B2F4C08C8024D08C93B4E08B3
:100EB000CA3B4F08CB3B4B084A0449044804031D76
:100EC000622F632F8D2F5B08031D672F682F8D2FD7
:100ED0000030CB000030CA000030C9000030C8002C
:100EE000FF2F0130C835C90DCA0DCB0D890B722FEC
:100EF000DB1F7B2F7C2F7D2F48145B1C802F812FC5
:100F0000842F0314DB0D862F0310DB0D5A08031901
:100F10008A2F8B2F8D2F0130DA02CA1F902F912F2D
:100F2000712FD901DB1F952F962FA42F5B087F39D6
:100F300003199B2F9C2F9F2FD901D90AA42F481C3E
:100F4000A22FA32FA42F9C2F59080319A82FA92F34
:100F5000D62F0130C8070030C93D0030CA3D0030EF
:100F6000CB3D4B1CB42FB52FD62F4808D0004908D5
:100F7000D1004A08D2004B08D3000130D400D33747
:100F8000D20CD10CD00CD40BBF2F5308CB0052087D
:100F9000CA005108C9005008C8005A0A0319D12FC5
:100FA000D22FD62F0130D0005008DA075A0A031981
:100FB000DA2FDB2FE02F5A08031DDF2FE02FEE2F53
:100FC0000030CB000030CA000030C9000030C8003B
:100FD0005A08031DEC2FED2FEE2FD8015A1CF12FCC
:100FE000F22FF42FCA17F82F7F30D0005008CA050F
:100FF0005A36CB00D81FFD2FFE2FFF2FCB1708002E
:10100000603045018D0040308F0091010530930024
:101010009201940108004001A601A70120082104C3
:101020000319132814284328A501A50A20280130F4
:10103000A035A10D890B18280130A4002408A507AC
:10104000A11F2328242817280130A635A70D890BB6
:10105000252821082302031D2F2820082202031C13
:101060003228332838282008A2022108A33B26145E
:101070000130A136A00C890B39280130A502031DCF
:101080004228432824282708A1002608A000080099
:10109000903176208831B8304001E0009830E1008E
:1010A0000030E2009830E3009F3198278831CA3041
:1010B0004001A0001F30A1009F311527883100306A
:1010C0004001A0001F30A10014308400A030850032
:1010D000013F8A00003F0A008831F5304001A0003E
:1010E0001E30A10008308400A0308500013F8A0036
:1010F000003F0A0088318B170B1741016F08031955
:1011000082288328B928EF019431D92488314001FD
:1011100025084101D100400124084101D0004001CF
:1011200023084101CF00400122084101CE005108AF
:101130004001B100410150084001B00041014F0899
:101140004001AF0041014E084001AE009231312212
:101150008831400131084201E90040013008420174
:10116000E80040012F084201E70040012E0842013B
:10117000E60071080319BD28BE287D28F1018A31D7
:101180002D22883141013B08D7003A08D6004201A0
:1011900069084001E900420168084001E800420195
:1011A00067084001E700420166084001E60041018E
:1011B00057084001EB00410156084001EA00973111
:1011C0001D278831400167084101D90040016608A8
:1011D0004101D80000304201E9000030E800003051
:1011E000E7000030E600410158085904031DF928C2
:1011F000FA280329A1304001E0009830E1009F3136
:10120000982788317D280B305902B93003195802CC
:10121000031C0B290C2915296A304001E000983085
:10122000E1009F31982788317D2887304001E00018
:101230009830E100410157084001E30041015608A0
:101240004001E2009F3198278831CE304001E00014
:101250009830E100410159084001E300410158087C
:101260004001E2009F31982788317D2880314B284A
:1012700040014A0886008701403FCC00413FCD0035
:101280004C0884004D0885001200253A031D4929A9
:101290004A29122A4A088600870101308107413114
:1012A0000318810A4101D201D30103100030031851
:1012B0000130EE00FF30D400FF30D50040014A0875
:1012C00086008701403FD600413FD7005608840082
:1012D000570885001200753A031D6F297029A72948
:1012E0004B088600870101088400850102308107D0
:1012F000003FD000013FD1005608013ECC00003035
:10130000573DCD004A08860087014C08C03F4D0874
:10131000C13F96294908BE004808BD005108C000D9
:101320005008BF009531512589312C2A5608840078
:10133000570885000008CC00CD014D08003A03197C
:10134000A229A7294C08753A03198A29A7294A080E
:1013500086008701403FCC00413FCD004C0884000F
:101360004D0885001200733A0319B729B829D1290D
:101370004A0886008701403FA000413FA10030306D
:10138000A200A030A3000330A4000030A5009231D9
:10139000D9228931400120082104031DD029D129F7
:1013A000082A4A0886008701403FCC00413FCD0013
:1013B0004C0884004D0885001200733A0319E12996
:1013C000E229E7290330D4000030D500EB290130B1
:1013D000D4000030D5004A088600870154088107F0
:1013E00041315508813D7F314908AC004808AB00C8
:1013F0004B088600870101088400850102308107BF
:10140000003FAD00013FAE009531CD2589312C2A3A
:1014100040014A08860087010130810741310318E5
:10142000810A2C2A4A0886008701403FCC00413FB0
:10143000CD004C0884004D0885000008CE00CF0187
:101440004E08A2004F08A3004908A5004808A400C0
:10145000933194238931082A0800153090310620F1
:101460008A31400121084101C900400120084101A1
:10147000C8003A304001B1005330B0003330AF0003
:101480003330AE00410148084001A0004101490845
:101490004001A100A201A3010030963172268A31D9
:1014A00040012308B5002208B4002108B300200839
:1014B000B2008D31C5258A31400131084101CD008E
:1014C000400130084101CC0040012F084101CB0010
:1014D00040012E084101CA004D084001DF004101D2
:1014E0004C084001DE0041014B084001DD00410194
:1014F0004A084001DC004030E3005330E200333062
:10150000E1003330E0009031CF208A3140015F08A4
:10151000E7005E08E6005D08E5005C08E400413095
:10152000B1002030B0000030AF000030AE0041010B
:101530004D084001B50041014C084001B400410193
:101540004B084001B30041014A084001B2008D310F
:10155000C5258A3140013108EB003008EA002F0828
:10156000E9002E08E8008B31C5238A314001670865
:101570004101CD00400166084101CC0040016508F1
:101580004101CB00400164084101CA0041304001E3
:10159000E7002030E6000030E5000030E4004101C3
:1015A0004D084001EB0041014C084001EA004101B7
:1015B0004B084001E90041014A084001E8008B3135
:1015C000C5238A31400167084101BF004001660818
:1015D0004101BE00400165084101BD0040016408B1
:1015E0004101BC003F084001EF0041013E084001BD
:1015F000EE0041013D084001ED0041013C08400181
:10160000EC00803196208A3140016F084101C3000F
:1016100040016E084101C20040016D084101C10056
:1016200040016C084101C0003B304001CB005B3001
:10163000CA00CF30C9000F30C8004530E70076300F
:10164000E600E030E5000030E400410143084001DD
:10165000EB00410142084001EA004101410840011C
:10166000E900410140084001E8008B31C5238A317F
:1016700040016708CF006608CE006508CD00640809
:10168000CC008531F8258A3140014B084101C70063
:1016900040014A084101C600400149084101C50016
:1016A000400148084101C40047084001E7004101EA
:1016B00046084001E600410145084001E5004101BE
:1016C00044084001E4003F30EB008030EA00003085
:1016D000E9000030E8008B31C5238A3140016708FA
:1016E0004101CD00400166084101CC004001650880
:1016F0004101CB00400164084101CA00C3304001F0
:10170000CB008830CA009330C9003330C800410193
:101710004D084001CF0041014C084001CE0041017D
:101720004B084001CD0041014A084001CC00853101
:10173000F8258A3140014B084101CD0040014A089B
:101740004101CC00400149084101CB00400148085B
:101750004101CA004D084001CB0041014C08400145
:10176000CA0041014B084001C90041014A0840013B
:10177000C8009331F3238A31400149084101BB007D
:10178000400148084101BA00080040016B08803957
:101790004101A90040016B354101B0004001EA1F41
:1017A000D22BD32BD52B4101301441013008031922
:1017B000DA2BDB2BED2B300A031DDF2BE02BE92B83
:1017C00000304001EB000030EA000030E90000305A
:1017D000E8004001EA17EB01F62B00304001EB0076
:1017E0000030EA000030E9000030E8006708803986
:1017F0004101A0002008A906400167354101B10060
:101800004001E61F042C052C072C41013114410135
:10181000310803190C2C0D2C1F2C310A031D112C1F
:10182000122C1B2C00304001E7000030E600003095
:10183000E5000030E4004001E617E701282C003005
:101840004001E7000030E6000030E5000030E40031
:101850006708660465046404031D2F2C302C4B2C90
:101860000030EB000030EA000030E9000030E80012
:101870008030EA047F30EB0441012908A0002008F1
:101880004001EB046B08E7006A08E6006908E50020
:101890006808E400C42D41013008031D502C512C70
:1018A0005B2C00304001E7000030E6000030E5002E
:1018B0000030E400C42D3008A000A1012108A300DD
:1018C00031082002A200031CA30322087F3EAA00C5
:1018D0000030233DAB0040016B084101A8004001EE
:1018E0006A084101A700400169084101A6004001C2
:1018F00068084101A50000304001EB000030EA001B
:101900000030E9000030E80000304101AF00003055
:10191000AE000030AD000030AC00B101E12C310868
:101920000319932C942CB22C0130A535A60DA70DCC
:10193000A80D890B952C01304001E835E90DEA0D21
:10194000EB0D890B9C2C4101AF1FA72CA82CAA2CB6
:101950004001681401304101AC35AD0DAE0DAF0D45
:10196000890BAB2C4001670841012802031DC82CDC
:101970004001660841012702031DC82C400165088B
:1019800041012602031DC82C4001640841012502C3
:10199000031CCB2CCC2CDD2C2F17400164084101FB
:1019A000A502400165084101A63B400166084101CE
:1019B000A73B400167084101A83B0130A000200877
:1019C000B1071A303102031CE62CE72C8F2C2808B3
:1019D0002704260425040319EE2CEF2C0B2D2C14C0
:1019E0000B2D0130E835E90DEA0DEB0D890BF22CDA
:1019F0004101AF1FFC2CFD2CFF2C4001681401306D
:101A00004101AC35AD0DAE0DAF0D890B002DFF3092
:101A1000AA07FF30AB3D4001EA1F0F2D102DF12C1E
:101A20004101B101AF1F152D162D342DFF302C05AE
:101A3000A000FF302D05A100FF302E05A2007F3051
:101A40002F05A30023082204210420040319292DB3
:101A50002A2D2E2D4101B101B10A342D4001681CFF
:101A6000322D332D342D2A2D410131080319392D02
:101A70003A2D722D01304001E8070030E93D003079
:101A8000EA3D0030EB3D6B1C462D472D722D68085A
:101A90004101A000400169084101A10040016A081C
:101AA0004101A20040016B084101A3000130A400E4
:101AB000A337A20CA10CA00CA40B582D23084001A5
:101AC000EB00410122084001EA00410121084001E8
:101AD000E900410120084001E80001304101AA0766
:101AE0000030AB3D41012B08803AA000803020023D
:101AF000031D7C2DFF302A02031C7F2D802D8E2D8F
:101B0000FF304101AA000030AB0000304001EB0083
:101B10000030EA000030E9000030E80041012B0805
:101B2000803AA00080302002031D982D01302A0247
:101B300003189B2D9C2DAA2D4101AA01AB01003059
:101B40004001EB000030EA000030E9000030E8001E
:101B50004101A90141012A08B000301CB02DB12D6E
:101B6000B42D4001EA17B92D7F30A00020084001B4
:101B7000EA05410130364001EB0041012908A0008F
:101B800020084001EB04422C080040013108803954
:101B9000BB003135C100B01FCE2DCF2DD02D41144B
:101BA00041080319D42DD52DE42D410A031DD92D4B
:101BB000DA2DE22D0030B1000030B0000030AF006F
:101BC0000030AE00B017EC2D0030B1000030B00096
:101BD0000030AF000030AE0035088039B60036085E
:101BE000BB063535BC00B41FF62DF72DF82D3C147F
:101BF0003C080319FC2DFD2D0C2E3C0A031D012E63
:101C0000022E0A2E0030B5000030B4000030B300C0
:101C10000030B200B417142E0030B5000030B4000C
:101C20000030B3000030B2003C080319182E192E02
:101C30001E2E4108031D1D2E1E2E272E0030B10022
:101C40000030B0000030AF000030AE00FF2F2E0893
:101C5000A0003408913110218D3140012108C700C6
:101C60002008C6004608B600B701B801B901390816
:101C7000C0003808BF003708BE003608BD0047085E
:101C8000B600B701B801B9013908C5003808C40069
:101C90003708C3003608C2002F08A000330891316E
:101CA00010218D3140012108C7002008C6004608D8
:101CB000B600B701B801B9013608BD073708BE3D07
:101CC0003808BF3D3908C03D4708B600B701B80124
:101CD000B9013608C2073708C33D3808C43D390882
:101CE000C53D3008A0003208913110218D314001EE
:101CF0002108C7002008C6004608B600B701B80191
:101D0000B9013608BD073708BE3D3808BF3D390860
:101D1000C03D4708B600B701B801B9013608C2078F
:101D20003708C33D3808C43D3908C53D0830BD35C6
:101D3000BE0DBF0DC00D890B972E2F08A0003208D5
:101D4000913110218D3140012108C7002008C600C3
:101D50004608BD074708BE3D0030BF3DC03D2E08C8
:101D6000A0003308913110218D3140012108C700B6
:101D70002008C6004608BD074708BE3D0030BF3DED
:101D8000C03D0830BD35BE0DBF0DC00D890BC22E44
:101D90002E08A0003208913110218D314001210818
:101DA000C7002008C6004608BD074708BE3D0030F2
:101DB000BF3DC03D2F08A0003408913110218D3166
:101DC00040012108C7002008C6004608C20747088E
:101DD000C33D0030C43DC53D3008A00033089131FB
:101DE00010218D3140012108C7002008C600460897
:101DF000C2074708C33D0030C43DC53D3008A000C0
:101E00003408913110218D3140012108C70020088C
:101E1000C6004608B6004708B700B801B901083047
:101E2000B635B70DB80DB90D890B102F3608C2079E
:101E30003708C33D3808C43D3908C53D3D08B600E4
:101E40003E08B7003F08B8004008B9001830B9365E
:101E5000B80CB70CB60C890B272F3608C207370809
:101E6000C33D3808C43D3908C53D0830BD35BE0DF9
:101E7000BF0DC00D890B362F41083C07B600B701D6
:101E8000B70D3608823EC600FF30373DC7005F2FD2
:101E90000130C235C30DC40DC50D890B492FC01FBC
:101EA000522F532F542F42140130BD35BE0DBF0D9C
:101EB000C00D890B552FFF30C607FF30C73DC41F2B
:101EC000622F632F482FBC01C01F672F682F842FFC
:101ED000FF303D05B600FF303E05B700FF303F053F
:101EE000B8007F304005B90039083804370436049B
:101EF00003197B2F7C2F7F2FBC01BC0A842F421C2F
:101F0000822F832F842F7C2F3C080319882F892F41
:101F1000B12F0130C2070030C33D0030C43D003056
:101F2000C53D451C942F952FB12F4208B60043089C
:101F3000B7004408B8004508B9000130BA00B93705
:101F4000B80CB70CB60CBA0B9F2F3908C50038086F
:101F5000C4003708C3003608C2000130C60700308D
:101F6000C73D4708803AB60080303602031DBA2FBD
:101F7000FF304602031CBD2FBE2FC82F7F3040010B
:101F8000C5008030C4000030C3000030C200F32F11
:101F900040014708803AB60080303602031DD22F38
:101FA000013046020318D52FD62FE12F0030400113
:101FB000C5000030C4000030C3000030C200BB01C7
:101FC000F32F40014608C100FF30C205FF30C305B2
:101FD0007F30C4050030C505411CEF2FF02FF12FD5
:101FE000C4174136C5003B08B6003608C50445088D
:101FF000B1004408B0004308AF004208AE0008003A
:102000000800400120084E018D0008004001A20098
:1020100022087A019F00A6172613261426181128D5
:1020200012280E281E084001A1007A011D08400157
:10203000A0000800F33043019D009C014F309F0039
:1020400000304001A0001030A1009F3130279031B6
:1020500041018C129616803043019E000800410118
:102060000D136908F7006808F6009F31A827903122
:1020700041016408650403193E283F284428650887
:102080008A0064080A0090310800863048018E00FA
:102090008F018D018C01EF304001A0001E30A100A6
:1020A0009F311527903148011F08FC3901389F00E6
:1020B00041018E129816080040012108A400200852
:1020C000A30066280130A0070030A13D200884004D
:1020D000210885001200031D6E286F28622823083E
:1020E0002002A0002408213BA10008008831002024
:1020F00090319131F52190319031EF209031903134
:102100004520903191315B2190319F3145279031AD
:1021100090311A2090319031B02090319F31392781
:102120009031080040015B08DF005A08DE00A32858
:102130005908C9005808C8005E30CA005C08CB00C6
:1021400089313821903140015E0884005F088500A4
:102150001200031DAC28AD289828D801D901080029
:1021600046018F01900101309100FF308D00FE305B
:102170008C000D084101E90046010C084101E8000E
:10218000F2304001A0001E30A1009F31272790317E
:1021900041010D131717013046018E0008008030F1
:1021A0004001DF066308CB006208CA006108C9006D
:1021B0006008C8005F08CF005E08CE005D08CD0053
:1021C0005C08CC008531F825903140014B08DF00D8
:1021D0004A08DE004908DD004808DC0008007A01F2
:1021E0008C018D018E018F019201930198019A015A
:1021F0009F01A001A101A201A301A401A501AE01BB
:10220000AF01B001A7011030A800A901AA01AB01DC
:10221000AC01AD019430A6004101121092100800EB
:102220004001A800A401A5012008A200A3012208E2
:10223000A6002308A700281C1E291F2923292608D9
:10224000A4072708A53D0130A635A70D890B242931
:102250000310A80C2808031D2E292F291B29250847
:10226000A1002408A00008004001AF00B101B201A4
:102270004C293008AD00AE012D08A2002E08A300A5
:102280002C08A5002B08A400933194239131013030
:102290004001B1070030B23D31082F07AD002D08D5
:1022A0008600013087000108B0003008031D59295D
:1022B0005A293929080041019A1364304001A000CD
:1022C0001430A1009F318927913148304E0192008E
:1022D000903090002630910040308E0003308F0007
:1022E000F0304001A0001E30A1009F316B279131DA
:1022F000F8304001A0001E30A1009F317A279131B3
:102300004101E001E101F501F401F3019A17080030
:1023100040012008210403198E298F29B829A5011D
:10232000A50A9B290130A035A10D890B9329013005
:10233000A4002408A507A11F9E299F2992292108EE
:102340002302031DA52920082202031CA829A9296C
:10235000AD292008A2022108A33B0130A136A00C20
:10236000890BAE290130A502031DB729B8299F2981
:102370002308A1002208A00008004001B71BC129C2
:10238000C229C7293708BC003608BB00C929BB01D0
:10239000BC01B901BA01DD2920304001A2000030A2
:1023A000A3003408A5003308A4009331942391318D
:1023B00001304001B9070030BA3D3A08803AB80010
:1023C0003C08803A3802031DE7293B083902031C08
:1023D000EA29EB29CC2940013408AC003308AB00D2
:1023E000350891313421913108004001980199015B
:1023F0009A013730920060309300FB309400373000
:102400007D018C0040309600EF30A0008D019701D7
:10241000A1018E019801A20137308F00F0309900A0
:10242000FF30A3003F309000F0309A00FF30A4004E
:1024300012307C01D0000D30C20013307B019B00B4
:1024400014307C019E0009307B01A0007D019101C8
:10245000920193019B019C019D01A501A601A70189
:10246000080040013108A3003008A2002F08A10095
:102470002E08A0000030A7000F30A6004230A500B3
:102480004030A40092317E22923140012308BD00E9
:102490002208BC002108BB002008BA003A08B2009C
:1024A0003B08B3003C08B4003D08B5003A08B6004C
:1024B0003B08B7003C08B8003D08B9000430B93605
:1024C000B80CB70CB60C890B5F2A3608B207370870
:1024D000B33D3808B43D3908B53D3508BD00340872
:1024E000BC003308BB003208BA003D08B1003C080C
:1024F000B0003B08AF003A08AE00080000304001D1
:10250000AC000030AB000030AA000030A900230866
:1025100022042104200403198E2A8F2AD02AAD0117
:10252000AD0A9D2A0130A035A10DA20DA30D890B86
:10253000932A0130A8002808AD07A31FA02AA12ACA
:10254000922A0130A935AA0DAB0DAC0D890BA22A38
:1025500023082702031DB62A22082602031DB62AD5
:1025600021082502031DB62A20082402031CB92ACB
:10257000BA2AC32A2008A4022108A53B2208A63BA8
:102580002308A73B29140130A336A20CA10CA00CF0
:10259000890BC42A0130AD02031DCF2AD02AA12AFB
:1025A0002C08A3002B08A2002A08A1002908A000DB
:1025B000080040012108A8002008A7002308AA005D
:1025C0002208A9000130A4020030A53B240A031D03
:1025D000ED2A250A031DED2AEE2AFD2AA001A101FC
:1025E000352B0130A7070030A83D0130A907003086
:1025F000AA3D0130A4020030A53B2708840028082A
:10260000850012000319052B062B252B29088400B1
:102610002A088500120003190E2B0F2B252B2408E6
:1026200025040319142B152B252B290884002A08AF
:1026300085000008A60027088400280885000008F7
:1026400026060319242B252BF12A270884002808A5
:1026500085000008A600290884002A0885000008D3
:102660002602A000A101031CA10308003F30400185
:10267000CB008030CA000030C9000030C8003C30B8
:10268000B100B130B000C430AF003330AE006008EC
:10269000E73EA000FF30613DA100A201A11BA20303
:1026A0002208A3000130963172269331400123089D
:1026B000B5002208B4002108B3002008B2008D3113
:1026C000C525933140013108CF003008CE002F08D6
:1026D000CD002E08CC008531F825933140014B0800
:1026E000E5004A08E4004908E3004808E2005F0802
:1026F000B1005E08B0005D08AF005C08AE00650880
:10270000B5006408B4006308B3006208B2008D31FC
:10271000C525933140013108DF003008DE002F0865
:10272000DD002E08DC000800400124082504031900
:102730009A2B9B2BA12B24082504031DA02BA12B36
:10274000A62B22089F31B9279331F22B240886004B
:10275000250887004931160001040319B02BB12B5D
:10276000D12B24088600250887004931403FA60068
:10277000413FA70024088600250887004231403FDA
:10278000A800413FA9002908803AAA002708803AFA
:102790002A02031DCD2B260828020318D02BD12B8B
:1027A000F22B4001240886002508870042312408C6
:1027B000840025088500403F0007A6000131413F05
:1027C000003DA70026088600270887002208810010
:1027D00024088600250887004231013081074131F5
:1027E0000318810A0800031040014A0D4B0DD10067
:1027F0005108031DFC2BFD2B062C0030CB000030B4
:10280000CA000030C9000030C800632C4808CC0062
:102810004908CD004A08CE004B08CF001F30CF3604
:10282000CE0CCD0CCC0C890B0F2C4C08D000CA1749
:10283000FF30C805FF30C905FF30CA050030CB05A1
:102840009630D102D11F252C262C3E2C5108803ADF
:10285000973E03182C2C2D2C2E2CFD2B0130CB3623
:10286000CA0CC90CC80C890B2F2C0130CC004C08A9
:10287000D107031D3C2C3D2C2E2C532C2030510213
:10288000031C432C442C4E2CFD2B0130C835C90DA4
:10289000CA0DCB0D890B462C0130D1025108031D06
:1028A000522C532C452C50080319572C582C632CB0
:1028B000C809C909CA09CB09C80A0319C90A0319F1
:1028C000CA0A0319CB0A08007508F600F701F635A5
:1028D000F70D7030F8002630F9007608780786008A
:1028E0007708793D87000030C03FC13F4E01901C02
:1028F0007A2C7B2C972C7508F600F701F635F70D2E
:102900007030F8002630F9007608780786007708DE
:10291000793D8700011541015C085D040319912C84
:10292000922C972C5D088A005C080A0094314E01B5
:10293000101D9B2C9C2CB82C7508F600F701F63561
:10294000F70D7030F8002630F90076087807860019
:102950007708793D8700811441015E085F040319FF
:10296000B22CB32CB82C5F088A005E080A009431A0
:102970004E010C08FA007508013E7F39FB007B0808
:102980007406031DC42CC52CC62CD82C7508703EAB
:10299000F600F7012730F73D7608860077088700B4
:1029A0007A0881007B08F5000130F6007608F3070D
:1029B000080000304001B3000030B2000030B10028
:1029C0000030B0009F310C27943140012108AF0046
:1029D0002008AE009E31F32694314001B8008031CA
:1029E000022094319E31FC2694312330400138027C
:1029F0000318FB2CFC2C402D3808A600A701A609C3
:102A0000A709A60A0319A70A2608B4002708B500D3
:102A1000B601B7013408A6003508A7003608A8009B
:102A20003708A9002E08AA002F08AB00AC01AD01A1
:102A30002A08A6072B08A73D2C08A83D2D08A93D6C
:102A40002908B7002808B6002708B5002608B400F2
:102A50003408A6003508A7003608A8003708A900E2
:102A60000530A936A80CA70CA60C890B312D290816
:102A7000B3002808B2002708B1002608B000482D8E
:102A80000030B3000A30B2008730B1005130B000DE
:102A90003308A5003208A4003108A3003008A200C2
:102AA00008004101D51F552D562D5C2D01304001E8
:102AB000C4000030C500632D55084001C500410128
:102AC00054084001C400410153084001C3004101C2
:102AD00052084001C2001F30C6000030C700430149
:102AE000D201A32DFF304001C607FF30C73D460885
:102AF000B33E8600013087000A30A0000030A100FC
:102B00004008A3003F08A20091318821953140017F
:102B10002008303E8100FF30C407FF30C53DFF3044
:102B2000C207FF30C33D0A30A0000030A1004008BA
:102B3000A3003F08A20088310B20953140012108F5
:102B4000C0002008BF004001460847040319A92D12
:102B5000AA2DBD2D3F084004031DAF2DB02D722DB1
:102B60004508803AC10080304102031DB92D013073
:102B700044020318BC2DBD2D722D40013E08B40047
:102B80003D08B3004608B33EB5004308B70042080D
:102B9000B6009131BD2195310800D3308600013057
:102BA0008700313084000030850007304001AF00DD
:102BB00016001A00AF0BD82D2E08BD002D08BC0042
:102BC0003C083D04031DE52DE62DEA2D3130BC0007
:102BD0000030BD003D08A1003C08A00090315C2001
:102BE000953140012108BF002008BE004101550871
:102BF0004001C100410154084001C000C11B012E29
:102C0000022E162E4108803AAF003F08803A2F026C
:102C1000031D0C2E3E084002031C0F2E102E112EF9
:102C2000162E40014108BF004008BE0040013F0889
:102C3000C1003E08C000410153084001B9004101F4
:102C400052084001B800352E20304001A20000306B
:102C5000A3002C08A5002B08A400933194239531E0
:102C600001304001BE070030BF3D3F08803AAF0051
:102C70003908803A2F02031D3F2E38083E02031CFC
:102C8000422E432E242E4001BA01BB01632E400187
:102C90003C0884003D0885000008AF00B0012F0803
:102CA000A2003008A3002C08A5002B08A400933133
:102CB0009423953101304001BC070030BD3D013007
:102CC000BA070030BB3D3B08803AAF004108803A6C
:102CD0002F02031D6D2E40083A02031C702E712E28
:102CE000472E08004001A80028080319782E792EE5
:102CF0008D2EA31F7C2E7D2E8D2E2009AA0021094A
:102D0000AB002209AC002309AD00AA0A0319AB0AE3
:102D10000319AC0A0319AD0A952E2308AD00220849
:102D2000AC002108AB002008AA00230822042104DB
:102D30002004031D9C2E9D2EA62E0030A3000030E3
:102D4000A2000030A1000030A0001C2F9630A90086
:102D5000B42E0130A4002408A9070130AD36AC0C14
:102D6000AB0CAA0C890BAE2EFE302D05031DB92E1F
:102D7000BA2EA92ECE2E0130A4002408A9070130B6
:102D8000AA070030AB3D0030AC3D0030AD3D013016
:102D9000AD36AC0CAB0CAA0C890BC82EFF302D0540
:102DA000031DD32ED42EBB2EDE2E0130A9020130FE
:102DB000AA35AB0DAC0DAD0D890BD82EAC1BE12E99
:102DC000E22EE82E023029020318E72EE82ED52E37
:102DD0002918EB2EEC2EF42EFF30AA05FF30AB05A0
:102DE0007F30AC05FF30AD050310A90C2908A40005
:102DF000A501A601A7011830A435A50DA60DA70DA4
:102E0000890BFC2E2408AA042508AB042608AC0470
:102E10002708AD04280803190E2F0F2F142FA31F06
:102E2000122F132F142FAD172D08A3002C08A2006A
:102E30002B08A1002A08A00008003E304001B10084
:102E40000F30B0005C30AF002930AE006908A3003D
:102E50006808A2006708A1006608A000003096314B
:102E60007226973140012308B5002208B4002108DA
:102E7000B3002008B2008D31C525973140013108DB
:102E80004101A500400130084101A40040012F0884
:102E90004101A30040012E084101A2003F30400142
:102EA000B1004C30B000CC30AF00CD30AE004101AD
:102EB00025084001B500410124084001B40041014A
:102EC00023084001B300410122084001B2008D31C6
:102ED000C5259731400131084101A9004001300862
:102EE0004101A80040012F084101A70040012E0820
:102EF0004101A60029084001DF00410128084001E6
:102F0000DE00410127084001DD00410126084001A3
:102F1000DC006B08E1006A08E0009331362397314A
:102F200040015F084101A90040015E084101A8007D
:102F300040015D084101A70040015C084101A60075
:102F400029084001B500410128084001B4004101B1
:102F500027084001B300410126084001B2003F307C
:102F6000B1000030B0000030AF000030AE008D3155
:102F7000C5259731400131084101A50040013008C5
:102F80004101A40040012F084101A30040012E0887
:102F90004101A20025084001B5004101240840017B
:102FA000B400410123084001B3004101220840015F
:102FB000B2003E30B100B330B0003330AF00333038
:102FC000AE008D31C525973140013108CB00300866
:102FD000CA002F08C9002E08C8009331F323973187
:102FE000400149084101A100400148084101A000F9
:102FF00021084001E700410120084001E6000800E7
:103000000D3420340A3420342A342A342A342D341E
:103010002D342D342D342D345734613474346534CB
:103020007234203454344434533420344D346534B1
:1030300074346534723420347534733469346E34C6
:1030400067342034503449344334313436344634D0
:10305000313437343134343436342D342D342D3446
:103060002D342D342A342A342A3420340D3420349B
:103070000A3400345B34113400340034003400343A
:103080000134103400340034EE341F340034003482
:103090000034003400340034003400340034003490
:1030A0000034003400340034003400340034003480
:1030B00000340034003400340034003489341F34C8
:1030C000003400346B341F347A341F34003400343D
:1030D000003400340D3420340A3420345434443461
:1030E00053342034763461346C3475346534203490
:1030F0006F347534743420346F3466342034523471
:1031000061346E34673465342134213400340D3435
:1031100020340A34203457346134743465347234C2
:103120002034543465346D34703465347234613411
:1031300074347534723465343A342034253475343B
:1031400000340D3420340A342034503472346F3457
:1031500062346534203444346934733463346F34F6
:103160006E346E34653463347434653464340034DE
:103170000D3420340A342034503472346F346A34BD
:1031800065346334743420344E3461346D346534C2
:103190003A34203425347334203400340D34203450
:1031A0000A34203457346134743465347234203432
:1031B0005434443453343A34203425347534003490
:103DDE000800080008000800700808000130F10013
:103DEE0008004E011012101608004101DA01DB0125
:103DFE0008000130F6007608F207080028346E3409
:103E0E0075346C346C342934003441015B08400144
:103E1E00A10041015A084001A000080040012108FC
:103E2E004201ED00400120084201EC000800400173
:103E3E0021084101EB00400120084101EA00080081
:103E4E00400121084101E500400120084101E40044
:103E5E000800400121084101E30040012008410112
:103E6E00E200080041010C100B1400304001A000CC
:103E7E000030A1009F311E279F31080002305201F1
:103E8E008D0022308E0001308F0090019201803023
:103E9E008C0008006400800101310130FE02003008
:103EAE00FF3B7F087E04031D522F003441018C120C
:103EBE00620863040319642F652F6A2F63088A0052
:103ECE0062080A009F3108004001200821040319EE
:103EDE00712F722F792F21084101DF004001200838
:103EEE004101DE0008004001200821040319802F43
:103EFE00812F882F21084101DD004001200841015A
:103F0E00DC00080040012008210403198F2F902F98
:103F1E00972F21084101ED00400120084101EC00DE
:103F2E00080062304001E4000030D800D90061087A
:103F3E00DB006008DA006430DC00903192209F31A3
:103F4E00080046010E1DAC2FAD2FB42F0E107708B2
:103F5E008D0076088C000E14B82F77088D00760829
:103F6E008C0008004001A1009F31EE279F31003ADE
:103F7E000319C22FC32FBB2F40012108A00090317F
:103F8E0001209F31080079084101DB007808DA0032
:103F9E007208F000F2010030F600F7009F31A827FA
:103FAE009F3101304101EF00080041018E1248019E
:103FBE000C08FA000D08FB007B08F9007A08F800DF
:103FCE0042016D088A006C080A009F31080040010A
:103FDE00A0014101101FF42FF52FFD2F4E01911E50
:103FEE00F92FFA2FFD2F4001A001A00A4001200851
:103FFE0008001A3410340034003400340034003415
:10400E00003430341F3400340034B03410340034F3
:10401E000034003400340034003427341F340034AC
:10402E00003426349E3478343E34EE34E934913400
:10403E003E341334CE34CC343E34AA34AA342A342B
:10404E003F34D134F734173437348034713431344B
:0A405E003F346C346C3473340034CA
:020000040001F9
:08000000FF3FFF3FFF3FFF3F00
:0A000E00FF3FFF3F9F3FFF3FFF3F12
:00000001FF
